:020000040800F2
:1000000020090020A5010008AD010008AF0100088B
:10001000B1010008B3010008B501000800000000AC
:10002000000000000000000000000000B701000810
:10003000B901000800000000BB0100080507000826
:10004000BF010008BF010008BF010008BF01000890
:10005000BF010008BF0100081D040008E1040008FA
:1000600005050008290500084D050008BF01000826
:10007000BF010008BF010008BF010008BF01000860
:10008000BF010008BF010008BF010008BF01000850
:10009000BF010008BF010008BF010008710500088A
:1000A000BF010008E9070008BF010008BF01000800
:1000B000350800086108000891080008BF01000821
:1000C000BF010008BF010008BF010008BF01000810
:1000D000BF010008BD090008C9090008D5090008CA
:1000E00041040008BF010008BF010008BF0100086B
:1000F00051090008BF010008BF010008BF01000846
:10010000BF010008BF010008C1080008BF010008C6
:10011000BF010008BF010008F1080008210900081C
:10012000BF010008BF010008BF010008BF010008AF
:10013000BF010008BF010008BF010008BF0100089F
:10014000BF010008BF010008BF010008BF0100088F
:10015000BF010008BF010008BF010008BF0100087F
:10016000BF010008BF010008BF010008BF0100086F
:10017000BF010008BF010008BF010008BF0100085F
:10018000BF010008BF010008DFF814D000F08AF8B2
:1001900000F03AF800480047810C000800F060F8D1
:1001A000200900200648804706480047FEE7FEE792
:1001B000FEE7FEE7FEE7FEE7FEE7FEE7FEE7FEE717
:1001C0008D0700088901000810B5431A934209D22F
:1001D0008318881803E010F8011D03F8011D521E52
:1001E000F9D210BD40EA01039B0703D009E008C91A
:1001F000121F08C0042AFAD203E011F8013B00F8EC
:10020000013B521EF9D210BD70B5054C054D03E0FF
:10021000206820448047241DAC42F9D170BD000005
:10022000EC0C0008F80C00082DE9F04107461546D3
:100230000E46102000F084FC04000AD06760C4E978
:10024000026500F009F80168216004600020BDE843
:10025000F0810120FBE700000048704720000020EB
:100260002DE9F0410646FFF7F7FF8046454613E0CB
:1002700016B1E068B0420ED120682860D4E90101CF
:10028000D8F800708847204600F02CFCD8F8000011
:10029000B842EBD100E025462C68002CE8D1BDE83F
:1002A000F0810000064C074D06E0E06840F00103D5
:1002B00094E8070098471034AC42F6D3FFF768FF84
:1002C000CC0C0008EC0C000870470029816802D0B3
:1002D00041F0010101E021F001018160704700005F
:1002E000084B10B5D3F8042307490A40D0E900149D
:1002F0002143D0E90240044321431143C3F80413CE
:1003000010BD000000200140E030FCFF30B5426825
:100310000F4B0C791A400B6842EA042213434360E6
:1003200082680C4B4D791A40D1E9034323438C6812
:1003300044EA4504234313438360C26A097D22F4DF
:100340007002491EC9B242EA0151C16230BD0000CB
:10035000FFFEFFFCFDF7FFC030B505461B488BB024
:10036000854202D1002184150AE01948854202D154
:100370000021441504E01748854208D100210415E6
:10038000204600F059F90121204600F049F90024E7
:1003900006944FF480300994CDE9070406A8FFF7CE
:1003A0009FFF009401208DF804408DF814008DF813
:1003B00005400294049469462846FFF7A7FF0121EF
:1003C0002846FFF782FF0BB030BD0000002001403F
:1003D000002101400022014070B500F09BF90E4859
:1003E0004FF47A714FF0FF350068B0FBF1F1491E10
:1003F000B1F1807F0AD24FF0E02461610F212846DD
:1004000000F060FB0020A061072020612846BDE8C5
:100410007040002100F056BB0400002010B5012000
:1004200000F0EAF8002808D00448006800B18047CE
:10043000BDE81040012000F0D9B810BDA402002092
:1004400070B54FF48065284600F0D6F8234C28B1EB
:10045000A16A01B18847284600F0C8F84FF400654A
:10046000284600F0C9F828B1E16A01B1884728465A
:1004700000F0BCF84FF48055284600F0BDF828B1D4
:10048000216B01B18847284600F0B0F84FF40055C1
:10049000284600F0B1F828B1616B01B188472846C1
:1004A00000F0A4F84FF48045284600F0A5F828B1E4
:1004B000A16B01B18847284600F098F84FF4004539
:1004C000284600F099F8002807D0E16B01B1884771
:1004D0002846BDE8704000F089B870BDA402002035
:1004E00010B5022000F088F8002808D004484068C1
:1004F00000B18047BDE81040022000F077B810BD81
:10050000A402002010B5042000F076F8002808D0DE
:100510000448806800B18047BDE81040042000F026
:1005200065B810BDA402002010B5082000F064F8E2
:10053000002808D00448C06800B18047BDE81040DA
:10054000082000F053B810BDA402002010B5102000
:1005500000F052F8002808D00448006900B1804734
:10056000BDE81040102000F041B810BDA4020020EA
:1005700070B5202000F040F81B4C28B1606900B134
:100580008047202000F032F8402000F035F828B1F4
:10059000A06900B18047402000F028F8802000F0DA
:1005A0002BF828B1E06900B18047802000F01EF8E8
:1005B0004FF48075284600F01FF828B1216A01B178
:1005C0008847284600F012F84FF40075284600F0DE
:1005D00013F8002807D0616A01B188472846BDE8B2
:1005E000704000F003B870BDA4020020014908600B
:1005F00070470000143C0140034A01460020126885
:100600000A4200D001207047143C014002490843CF
:1006100002490860704700000000FA050CED00E098
:10062000044A0029116801D0014300E081431160B0
:100630007047000044380240044A0029116801D084
:10064000014300E0814311607047000024380240FC
:100650000CB500202749019000900A6842F48032CE
:100660000A604FF4A0430A6802F400320092019A33
:10067000521C0192009A12B9019A9A42F3D10A6867
:10068000920334D5012000901A484030026842F0AD
:10069000805202601848026842F4404202601548E5
:1006A000083002680260026842F400420260026898
:1006B00042F4A0520260031F104A1A600A6842F016
:1006C00080720A600A689201FCD50D4A40F20571F9
:1006D0001160016821F003010160016841F002012D
:1006E00001600168C1F381010229FAD10CBD0090BB
:1006F0000CBD000000380240007000400854400467
:10070000003C024002480168491C0160704700003B
:100710000000002070B51A4C20681A4A10F00C0135
:10072000194804D05510042903D0082903D00260C9
:100730001BE0056019E01249091F0B68C3F38056DE
:100740000B6803F03F0316B1B5FBF3F201E0B2FB17
:10075000F3F20B680968C3F388135A43C1F30141EC
:10076000491C4900B2FBF1F101602168064AC1F35E
:100770000311121D515C0268CA40026070BD000086
:10078000083802400024F40004000020124810B58C
:10079000016841F4700101601048016841F00101F5
:1007A00001600E4A00210832116002680C4B1A40A9
:1007B0000260031D0B4A1A60026822F48022026064
:1007C00006480C300160FFF743FF03494FF000601B
:1007D0008039086010BD000088ED00E0003802405C
:1007E000FFFFF6FE1030002470B50F4D01212846A2
:1007F00000F0D7F80D4C30B1216801B188470121D4
:10080000284600F0CBF80A4D0121284600F0C9F82F
:10081000002808D0616A01B188472846BDE87040C9
:10082000012100F0BBB870BD00000140E4020020CF
:100830000044014010B501218C07204600F0B1F8BA
:10084000002809D00548416801B188472046BDE825
:100850001040012100F0A2B810BD0000E402002009
:1008600010B5094C0121204600F09BF8002809D062
:100870000648816801B188472046BDE81040012143
:1008800000F08CB810BD000000040040E40200201D
:1008900010B5094C0121204600F083F8002809D04A
:1008A0000648C16801B188472046BDE810400121D3
:1008B00000F074B810BD000000080040E402002001
:1008C00010B5094C0121204600F06BF8002809D032
:1008D0000648016901B188472046BDE81040012162
:1008E00000F05CB810BD0000000C0040E4020020E5
:1008F00010B5094C0121204600F053F8002809D01A
:100900000648416901B188472046BDE810400121F1
:1009100000F044B810BD000000100040E4020020C8
:1009200010B5094C0121204600F03BF8002809D001
:100930000648816901B188472046BDE81040012181
:1009400000F02CB810BD000000140040E4020020AC
:1009500070B50F4D0121284600F023F80D4C30B141
:10096000E16901B188470121284600F017F80A4DD6
:100970000121284600F015F8002808D0216B01B1AC
:1009800088472846BDE87040012100F007B870BDD7
:1009900000040140E4020020001C0040C943018221
:1009A000704702460020138A92890B4202EA010234
:1009B00002D0002A00D0012070470000014800F05A
:1009C00038B8000024000020014800F032B80000D0
:1009D000C0000020014800F02CB800005C0100209D
:1009E0000A0A01219140C9430180704730B501F0E6
:1009F0001F0201240025C1F3421304FA02F2012B65
:100A00000FD0022B0FD0838A4FEA112100881342A6
:100A100004FA01F400EA040001D000B101252846DF
:100A200030BD8389F0E7038AEEE78088C0F30800D1
:100A3000704770B5044640F2255500692946FFF716
:100A4000D5FF002818D02069FFF7EFFFC2B2208B36
:100A5000618B401C00F07F00814204D0238B04F1A5
:100A60001C015A542083606900B1804729462069DF
:100A7000BDE87040FFF7B4BF70BD000000224FF426
:100A80007A73C0E90123034B0360C0E90412428377
:100A900002837047A00C000810B5044C046080F875
:100AA000543080F8551080F8562010BDC40C000852
:100AB00003490160002180F8551080F856107047F6
:100AC000C40C00080907090E002804DB00F1E0202F
:100AD00080F80014704700F00F0000F1E02080F86B
:100AE000141D704730B528B1144C031F0020216835
:100AF0000A4605E0084630BD9A4203D810465268BF
:100B0000002AF9D1002800D041680BD00468A3EB7B
:100B10000005A54204D11B681C440346046002E0A2
:100B2000436000E023603AB11C68D51AA54203D1A6
:100B300015682C441C6052685A6030BD18000020B3
:100B40002DE9F04782460F4C10480D4E0E4F001B0A
:100B50004FF0000820F007054FF001090022114670
:100B6000504600F065F8002802D1306810B100202E
:100B7000BDE8F0873C60C4E90058C6F80090EDE796
:100B80001C00002024030020180000202005002065
:100B900002E008C8121F08C1002AFAD17047704746
:100BA000002001E001C1121F002AFBD170470000A4
:100BB00000B507490748FFF761FF064806499C3022
:100BC000FFF75CFF054906485DF804EBFFF756BFE9
:100BD0000010014024000020004400400048004074
:100BE0005C0100200448054901601C300449016093
:100BF0001C30044901607047500200200030014061
:100C000000380040003C004010B500231722162198
:100C10000448FFF741FFBDE81040034A0349FFF7CE
:100C200003BB0000F801002000000008B10A000822
:100C30002DE9F0410B3020F00706104D19E0206837
:100C4000B04215D3B0420AD9871B201DD4F80480C6
:100C5000FFF7BAFAA019C0E90078286004E06068DC
:100C60002860201DFFF7B0FA201D2660BDE8F08146
:100C7000251D2C68002CE2D10020F7E71800002089
:100C80004FF4A060FFF7C2FCFFF7A6FB0148FFF797
:100C900063FBFEE7002001400000000000000000B0
:100CA0000000000000000000000000000000000044
:100CB0000000000000000000000000000000000034
:100CC000000000000000000000000000F80C000818
:100CD0000000002024000000900B00081C0D0008FC
:100CE00024000020FC080000A00B0008C5FEFFFF48
:100CF00019FFFFFFF1FEFFFF00000000007A030A6A
:100D000000000000000000000102030406070809BB
:0C0D1000000000000000000000000000D7
:040000050800018965
:00000001FF
